:020000040800F2
:1000000000000120A51C0008451900084B19000834
:1000100051190008571900085D1900080000000078
:10002000000000000000000000000000631900084C
:1000300071190008000000007F1900088D190008E0
:10004000F51C0008F51C0008F51C0008F51C00084C
:10005000F51C0008F51C0008F51C0008F51C00083C
:10006000F51C0008F51C0008F51C0008F51C00082C
:10007000F51C0008F51C0008F51C0008F51C00081C
:10008000F51C0008F51C0008F51C0008F51C00080C
:10009000F51C0008F51C0008F51C0008F51C0008FC
:1000A000F51C0008F51C0008F51C0008F51C0008EC
:1000B000F51C00080000000000000000991900086D
:1000C000AD1900080000000000000000F51C000849
:1000D00000000000F51C0008F51C000800000000EE
:1000E000F51C0008F51C00080000000000000000DE
:1000F0000000000000000000000000000000000000
:10010000000000000000000000000000F51C0008D6
:100110000000000000000000F51C0008F51C0008AD
:10012000F51C0008F51C0008F51C0008F51C00086B
:10013000F51C0008000000000000000000000000A6
:10014000F51C0008F51C0008F51C0008F51C00084B
:10015000F51C0008F51C0008F51C0008F51C00083B
:10016000F51C0008F51C0008F51C00080000000044
:10017000F51C0008F51C000800000000000000004D
:0C018000F51C0008F51C0008F51C000828
:1001900010B5054C237833B9044B13B10448AFF3C1
:1001A00000800123237010BD7802002000000000B1
:1001B000648C000808B5034B1BB103490348AFF337
:1001C000008008BD000000007C020020648C000854
:1001D00001F0FF01102A2BDB10F0070F08D010F8F8
:1001E000013B013A8B422DD010F0070F42B3F6D1FC
:1001F000F0B441EA012141EA014122F007047FF015
:1002000000070023F0E80256083C85EA010586EA6B
:10021000010685FA47F5A3FA87F586FA47F6A5FAA7
:1002200087F68EB9EED1F0BC01F0FF0102F00702B3
:1002300032B110F8013B013A83EA010313B1F8D15E
:100240000020704701387047002D06BF354603383F
:10025000073815F0010F07D1013015F4807F02BF78
:10026000013015F4C03F0130F0BC0138704700BFC9
:10027000034613F8012B002AFBD1181A01387047E6
:1002800081F0004102E000BF83F0004330B54FEA47
:1002900041044FEA430594EA050F08BF90EA020FB4
:1002A0001FBF54EA000C55EA020C7FEA645C7FEA47
:1002B000655C00F0E2804FEA5454D4EB5555B8BF6A
:1002C0006D420CDD2C4480EA020281EA030382EADB
:1002D000000083EA010180EA020281EA0303362D6D
:1002E00088BF30BD11F0004F4FEA01314FF4801C40
:1002F0004CEA113102D0404261EB410113F0004F52
:100300004FEA03334CEA133302D0524263EB430308
:1003100094EA050F00F0A780A4F10104D5F1200EA6
:100320000DDB02FA0EFC22FA05F2801841F1000101
:1003300003FA0EF2801843FA05F359410EE0A5F1D5
:1003400020050EF1200E012A03FA0EFC28BF4CF006
:10035000020C43FA05F3C01851EBE37101F00045BC
:1003600007D54FF0000EDCF1000C7EEB00006EEBC9
:100370000101B1F5801F1BD3B1F5001F0CD3490853
:100380005FEA30004FEA3C0C04F101044FEA4452AA
:1003900012F5800F80F09A80BCF1004F08BF5FEA31
:1003A000500C50F1000041EB045141EA050130BD11
:1003B0005FEA4C0C404141EB0101013C28BFB1F523
:1003C000801FE9D291F0000F04BF01460020B1FA6E
:1003D00081F308BF2033A3F10B03B3F120020CDA41
:1003E0000C3208DD02F1140CC2F10C0201FA0CF01F
:1003F00021FA02F10CE002F11402D8BFC2F1200C84
:1004000001FA02F120FA0CFCDCBF41EA0C01904039
:10041000E41AA2BF01EB0451294330BD6FEA040482
:100420001F3C1CDA0C340EDC04F11404C4F120026D
:1004300020FA04F001FA02F340EA030021FA04F37F
:1004400045EA030130BDC4F10C04C4F1200220FAD6
:1004500002F001FA04F340EA0300294630BD21FA14
:1004600004F0294630BD94F0000F83F4801306BFDA
:1004700081F480110134013D4EE77FEA645C18BFCE
:100480007FEA655C29D094EA050F08BF90EA020F65
:1004900005D054EA000C04BF1946104630BD91EA5D
:1004A000030F1EBF0021002030BD5FEA545C05D160
:1004B0004000494128BF41F0004130BD14F580049F
:1004C0003CBF01F5801130BD01F0004545F0FE4113
:1004D00041F470014FF0000030BD7FEA645C1ABF48
:1004E000194610467FEA655C1CBF0B46024650EA7F
:1004F000013406BF52EA033591EA030F41F40021AB
:1005000030BD00BF90F0000F04BF0021704730B530
:100510004FF4806404F132044FF000054FF0000105
:1005200050E700BF90F0000F04BF0021704730B5C6
:100530004FF4806404F1320410F0004548BF40429B
:100540004FF000013EE700BF42004FEAE2014FEAF0
:1005500031014FEA02701FBF12F07F4393F07F4FCB
:1005600081F06051704732F07F4208BF704793F0CE
:100570007F4F04BF41F40021704730B54FF46074E1
:1005800001F0004521F000411CE700BF50EA0102E4
:1005900008BF704730B54FF000050AE050EA01028D
:1005A00008BF704730B511F0004502D5404261EBFD
:1005B00041014FF4806404F132045FEA915C3FF43E
:1005C000D8AE4FF003025FEADC0C18BF03325FEADB
:1005D000DC0C18BF033202EBDC02C2F1200300FA8C
:1005E00003FC20FA02F001FA03FE40EA0E0021FAB1
:1005F00002F11444BDE600BF70B54FF0FF0C4CF49F
:10060000E06C1CEA11541DBF1CEA135594EA0C0F50
:1006100095EA0C0F00F0DEF82C4481EA030621EA8B
:100620004C5123EA4C5350EA013518BF52EA0335C6
:1006300041F4801143F4801338D0A0FB02CE4FF078
:100640000005E1FB02E506F00042E0FB03E54FF0A8
:100650000006E1FB03569CF0000F18BF4EF0010EA0
:10066000A4F1FF04B6F5007F64F5407404D25FEA9C
:100670004E0E6D4146EB060642EAC62141EA55514F
:100680004FEAC52040EA5E504FEACE2EB4F1FD0C91
:1006900088BFBCF5E06F1ED8BEF1004F08BF5FEA0F
:1006A000500E50F1000041EB045170BD06F00046C1
:1006B00046EA010140EA020081EA0301B4EB5C046E
:1006C000C2BFD4EB0C0541EA045170BD41F4801166
:1006D0004FF0000E013C00F3AB8014F1360FDEBF8B
:1006E000002001F0004170BDC4F10004203C35DA67
:1006F0000C341BDC04F11404C4F1200500FA05F3EA
:1007000020FA04F001FA05F240EA020001F000428A
:1007100021F0004110EBD37021FA04F642EB060100
:100720005EEA430E08BF20EAD37070BDC4F10C042A
:10073000C4F1200500FA04F320FA05F001FA04F2EE
:1007400040EA020001F0004110EBD37041F10001DA
:100750005EEA430E08BF20EAD37070BDC4F12005E5
:1007600000FA05F24EEA020E20FA04F301FA05F24D
:1007700043EA020321FA04F001F0004121FA04F2F5
:1007800020EA020000EBD3705EEA430E08BF20EAC5
:10079000D37070BD94F0000F0FD101F000464000FF
:1007A00041EB010111F4801F08BF013CF7D041EA81
:1007B000060195F0000F18BF704703F00046520085
:1007C00043EB030313F4801F08BF013DF7D043EA56
:1007D0000603704794EA0C0F0CEA135518BF95EA0C
:1007E0000C0F0CD050EA410618BF52EA4306D1D193
:1007F00081EA030101F000414FF0000070BD50EAB2
:10080000410606BF1046194652EA430619D094EA3B
:100810000C0F02D150EA013613D195EA0C0F05D125
:1008200052EA03361CBF104619460AD181EA030179
:1008300001F0004141F0FE4141F470014FF0000031
:1008400070BD41F0FE4141F4780170BD70B54FF0CC
:10085000FF0C4CF4E06C1CEA11541DBF1CEA13554C
:1008600094EA0C0F95EA0C0F00F0A7F8A4EB05042E
:1008700081EA030E52EA03354FEA013100F0888025
:100880004FEA03334FF0805545EA131343EA1263EE
:100890004FEA022245EA111545EA10654FEA0026A3
:1008A0000EF000419D4208BF964244F1FD0404F55C
:1008B000407402D25B084FEA3202B61A65EB0305B8
:1008C0005B084FEA32024FF480104FF4002CB6EB75
:1008D000020E75EB030E22BFB61A754640EA0C00F5
:1008E0005B084FEA3202B6EB020E75EB030E22BF35
:1008F000B61A754640EA5C005B084FEA3202B6EB76
:10090000020E75EB030E22BFB61A754640EA9C0034
:100910005B084FEA3202B6EB020E75EB030E22BF04
:10092000B61A754640EADC0055EA060E18D04FEAC2
:10093000051545EA16754FEA06164FEAC30343EA62
:1009400052734FEAC2025FEA1C1CC0D111F4801F2F
:100950000BD141EA00014FF000004FF0004CB6E728
:1009600011F4801F04BF01430020B4F1FD0C88BFC7
:10097000BCF5E06F3FF6AFAEB5EB030C04BFB6EBD2
:10098000020C5FEA500C50F1000041EB045170BDC5
:100990000EF0004E4EEA113114EB5C04C2BFD4EBF2
:1009A0000C0541EA045170BD41F480114FF0000E76
:1009B000013C90E645EA060E8DE60CEA135594EAF2
:1009C0000C0F08BF95EA0C0F3FF43BAF94EA0C0FF5
:1009D0000AD150EA01347FF434AF95EA0C0F7FF46A
:1009E00025AF104619462CE795EA0C0F06D152EABE
:1009F00003353FF4FDAE1046194622E750EA4106A2
:100A000018BF52EA43067FF4C5AE50EA41047FF4B2
:100A10000DAF52EA43057FF4EBAE12E74FF0FF3C17
:100A200006E000BF4FF0010C02E000BF4FF0010CE8
:100A30004DF804CD4FEA410C7FEA6C5C4FEA430C61
:100A400018BF7FEA6C5C1BD001B050EA410C0CBFB0
:100A500052EA430C91EA030F02BF90EA020F002012
:100A6000704710F1000F91EA030F58BF994208BF79
:100A700090422CBFD8176FEAE37040F00100704736
:100A80004FEA410C7FEA6C5C02D150EA013C07D18D
:100A90004FEA430C7FEA6C5CD6D152EA033CD3D0D8
:100AA0005DF8040B704700BF8446104662468C46D2
:100AB0001946634600E000BF01B5FFF7B7FF002805
:100AC00048BF10F1000F01BD4DF808EDFFF7F4FF2E
:100AD0000CBF012000205DF808FB00BF4DF808EDB9
:100AE000FFF7EAFF34BF012000205DF808FB00BFDC
:100AF0004DF808EDFFF7E0FF94BF012000205DF8FE
:100B000008FB00BF4DF808EDFFF7CEFF94BF0120B2
:100B100000205DF808FB00BF4DF808EDFFF7C4FFAB
:100B200034BF012000205DF808FB00BF4FEA410CF4
:100B30007FEA6C5C02D150EA013C0AD14FEA430CD7
:100B40007FEA6C5C02D152EA033C02D14FF0000014
:100B500070474FF0010070474FEA410212F5001252
:100B600015D211D56FF47873B3EB625212D94FEAF4
:100B7000C12343F0004343EA505311F0004F23FADE
:100B800002F018BF404270474FF00000704750EA33
:100B9000013005D111F0004008BF6FF000407047F0
:100BA0004FF00000704700BF53B94AB9002908BF91
:100BB00000281CBF4FF0FF314FF0FF3000F070B93C
:100BC000ADF1080C6DE904CE00F006F8DDF804E0A4
:100BD000DDE9022304B070472DE9F047089E0D4679
:100BE00004460F46002B4AD18A42944665D9B2FA90
:100BF00082F343B102FA03FCC3F120029F4020FAC2
:100C000002F217439C404FEA1C4E1FFA8CF5B7FBCB
:100C1000FEF1220C0EFB117742EA074201FB05F0C0
:100C200090420AD91CEB020201F1FF3780F01C81CF
:100C3000904240F2198102396244121AA4B2B2FB06
:100C4000FEF00EFB102244EA024400FB05F5A5422B
:100C50000AD91CEB040400F1FF3280F00781A542A1
:100C600040F204816444023840EA0140641B0021E0
:100C70001EB1DC400023C6E90043BDE8F0878B428B
:100C800008D9002E00F0ED800021C6E900050846D5
:100C9000BDE8F087B3FA83F1002949D1AB4202D312
:100CA000824200F2F880841A65EB030201201746A5
:100CB000002EE2D0C6E90047DFE702B9FFDEB2FA54
:100CC00082F3002B40F090808A1A4FEA1C471FFAEB
:100CD0008CFE0121B2FBF7F507FB1520220C42EA3E
:100CE00000420EFB05F0904208D91CEB020205F110
:100CF000FF3802D2904200F2CB804546121AA4B2CD
:100D0000B2FBF7F007FB102244EA02440EFB00FEA0
:100D1000A64508D91CEB040400F1FF3202D2A64517
:100D200000F2BB801046A4EB0E0440EA05409FE7AA
:100D3000C1F120078B4022FA07FC4CEA030C05FAAC
:100D400001F420FA07F3FD404FEA1C492343B5FBA9
:100D5000F9F81FFA8CFE09FB18551C0C44EA0544EF
:100D600008FB0EF5A54202FA01F200FA01F00BD9D8
:100D70001CEB040408F1FF3A80F08880A54240F2A1
:100D80008580A8F102086444641B9DB2B4FBF9F3AA
:100D900009FB134445EA044403FB0EFEA64508D9AB
:100DA0001CEB040403F1FF356CD2A6456AD9023B63
:100DB000644443EA0843A3FB0295A4EB0E04AC424F
:100DC000C846AE4656D353D056B1B0EB080264EBDA
:100DD0000E0404FA07F7CA40CC401743C6E9007472
:100DE00018460021BDE8F087C3F1200102FA03FC98
:100DF00020FA01F225FA01F19D402A434FEA1C47EF
:100E00001FFA8CFEB1FBF7F007FB1015110C41EA3D
:100E1000054100FB0EF58D4204FA03F408D91CEBE2
:100E2000010100F1FF382FD28D422DD902386144E3
:100E3000491B92B2B1FBF7F507FB151142EA0142DB
:100E400005FB0EF1914208D91CEB020205F1FF38B7
:100E500016D2914214D9023D6244521A45EA004129
:100E600038E73146304608E73946E6E61046FBE605
:100E70004845A9D2B9EB020865EB0C0E013BA3E78C
:100E80004546EAE72B4694E74046D1E7D0467BE764
:100E9000023D624432E708460AE76444023842E70A
:100EA000704700BF80B588B000AF07F10C03002287
:100EB0001A605A609A60DA601A611D4BDB6C1C4A3A
:100EC00043F00403D3641A4BDB6C03F00403BB60F0
:100ED000BB68174BDB6C164A43F00103D364144B19
:100EE000DB6C03F001037B607B68114BDB6C104A09
:100EF00043F00203D3640E4BDB6C03F002033B6050
:100F00003B68002208210B4801F058FA0823FB60D7
:100F100001233B6100237B610023BB6107F10C03CC
:100F20001946044801F0E0F800BF2037BD4680BDF7
:100F3000001002400004004880B500AF1B4B1C4A63
:100F40001A601A4B1B4A5A60184B00229A60174BC2
:100F50000122DA60154B00221A61144B00225A61FB
:100F6000124B00229A61114B0022DA610F4B0022D2
:100F70001A620E4801F03AFA0346002B01D000F045
:100F80001CF90021094802F039FD0346002B01D06D
:100F900000F013F90021054802F07BFD0346002B09
:100FA00001D000F00AF900BF80BD00BF940200200C
:100FB000005400409129700080B59EB000AF786069
:100FC00007F1640300221A605A609A60DA601A61BD
:100FD00007F1100354220021184605F0D0F97B6870
:100FE0001B68274A934247D140233B610023FB63A0
:100FF00007F11003184603F035FC0346002B01D01F
:1010000000F0DBF81F4BDB6C1E4A43F00103D36496
:101010001C4BDB6C03F00103FB60FB684FF4C06307
:101020007B661223BB660123FB6603233B67042315
:101030007B6707F1640319464FF0904001F054F8C4
:10104000104B9B6D0F4A43F4001393650D4B9B6D42
:1010500003F40013BB60BB68002200211F2000F0D6
:10106000BEFF1F2000F0D7FF00220021202000F04B
:10107000B6FF202000F0CFFF00BF7837BD4680BD0F
:10108000005400400010024080B584B000AF00F072
:1010900032FE00F041F8FFF705FFFFF74DFF00F0CB
:1010A00067FD00BF164800F08DF80346012BF9D00C
:1010B0001449134800F0E0F8012000F091FE114BB4
:1010C000D3E91223381D104905F0F6F80F4BDBB2B7
:1010D0007B73391D01230A220D4803F0F9FE094BE9
:1010E000D3E91423381D084905F0E6F8094BDBB2B3
:1010F0007B73391D01230B22054803F0E9FED7E776
:1011000094020020E8020020808C0008888C0008EF
:10111000480300208C8C000880B596B000AF07F122
:10112000140344220021184605F029F93B46002209
:101130001A605A609A60DA601A614FF4007002F027
:1011400003FD0346002B01D000F037F802237B613A
:101150004FF480733B6210237B620223FB63022304
:101160003B6401237B640A23BB640723FB640223E3
:101170003B6502237B6507F11403184602F03AFD34
:101180000346002B01D000F018F80F233B60032327
:101190007B600023BB600023FB6000233B613B4678
:1011A0000421184603F03AF90346002B01D000F061
:1011B00004F800BF5837BD4680BD80B400AF72B69A
:1011C00000BFFEE780B588B004AF78606423029367
:1011D0000123019307F10F03009301237522D0210E
:1011E000786801F0B3FAFB7B682B3DD10023BB7319
:1011F000642302930123019307F10E03009301235B
:101200006B22D021786801F08DF90723BB7364232A
:1012100002930123019307F10E0300930123192286
:10122000D021786801F07EF90023BB736423029318
:101230000123019307F10E03009301231C22D02107
:10124000786801F06FF90023BB73642302930123D4
:10125000019307F10E03009301231B22D02178682C
:1012600001F060F9002300E0012318461037BD4665
:1012700080BD0000000000002DE9B04F94B004AF25
:1012800078603960642302930E23019307F1080309
:10129000009301233B22D021786801F057FA3B7A72
:1012A0001B021AB27B7A1BB213431AB23B681A8034
:1012B000BB7A1B021AB2FB7A1BB213431AB23B6809
:1012C0005A803B7B1B021AB27B7B1BB213431AB2C0
:1012D0003B689A80BB7B1B021AB2FB7B1BB2134399
:1012E000FB863B7C1B021AB27B7C1BB213431AB2F7
:1012F0003B681A84BB7C1B021AB2FB7C1BB21343F3
:101300001AB23B685A843B7D1B021AB27B7D1BB22A
:1013100013431AB23B689A843B68B3F9003018460D
:10132000FFF700F94FF00002BD4BFFF78FFA0246BE
:101330000B463968C1E902233B68B3F9023018460D
:10134000FFF7F0F84FF00002B54BFFF77FFA0246C7
:101350000B463968C1E904233B68B3F904301846E9
:10136000FFF7E0F8A8A3D3E90023FFF76FFA0246DE
:101370000B463968C1E90623B7F9363007EE903AD3
:10138000B8EEE77ADFEDA76AC7EE267A9FEDA67A78
:1013900077EE877A3B68C3ED107A3B68B3F920306B
:1013A0001846FFF7BFF89AA3D3E90023FFF74EFAD8
:1013B00002460B463968C1E90A233B68B3F922307B
:1013C0001846FFF7AFF892A3D3E90023FFF73EFAE0
:1013D00002460B463968C1E90C233B68B3F9243057
:1013E0001846FFF79FF88AA3D3E90023FFF72EFAE8
:1013F00002460B463968C1E90E2300F0E5FC0246BF
:101400008A4B1B68D31A1846FFF77CF84FF000028E
:10141000874BFFF71BFA02460B46C7E90A2300F089
:10142000D3FC0346814A13603B68B3F900301A4687
:101430003B68B3F9003003FB02F23B68B3F90430B8
:1014400019463B68B3F9043001FB03F31344184613
:10145000FFF768F802460B4643EC102B07F08AF8BA
:1014600087ED080B4FF000024FF00003D7E90801A9
:10147000FFF72AFB0346002B1FD13B68B3F902306C
:101480001846FFF74FF8D7E90823FFF7DFF90246C0
:101490000B4643EC172BB0EE470AF0EE670A07F055
:1014A00097F851EC100B5CA3D3E90023FFF7A4F8E5
:1014B00002460B46C7E90E2305E04FF000024FF04D
:1014C0000003C7E90E233B68B3F900305B421846BE
:1014D000FFF728F882468B463B68B3F9043018467C
:1014E000FFF720F802460B4643EC112B4BEC10ABF8
:1014F00007F03EF851EC100B47A3D3E90023FFF7A8
:101500007BF802460B46C7E906234FF00002494B21
:10151000D7E90601FFF7E2FA0346002B0AD03B6841
:10152000D3E914014FF00002434BFFF7F5FA0346ED
:10153000002B14D14FF000023F4BD7E90601FFF713
:10154000EBFA0346002B15D03B68D3E914014FF0AA
:101550000002384BFFF7C2FA0346002B0AD0374986
:10156000D7E90623C1E906233968D7E90623C1E98B
:10157000142314E03B6893ED0C7B97ED0A2BB0EE3F
:10158000471AF0EE671A97ED060B2C4800F05AF850
:10159000B0EE407AF0EE607A3B6883ED147B3B68F6
:1015A000D3E91423904623F000494FF00002224B68
:1015B00040464946FFF7B0FA0346002B08D03B6887
:1015C000D3E90A23144683F000453B68C3E90A4582
:1015D0003B6893ED0A7B97ED0A2BB0EE471AF0EECD
:1015E000671A97ED0E0B164800F02CF8B0EE407A13
:1015F000F0EE607A3B6883ED127B00BF4037BD465A
:10160000BDE8B08FAFF30080000000000029CC409F
:101610000000000000606040F8C1631ADCA54C4087
:101620000000D0400000AA43B81E12424003002030
:1016300000408F40008056C0008056404800002087
:1016400000000020B0B596B000AFF86187ED040B44
:1016500087ED021B87ED002BFB69D3E90823D7E94F
:101660000201FEF711FE02460B46C7E91423FB698F
:10167000D3E90645D7E91423D7E90001FEF7BCFFFB
:1016800002460B4620462946FEF700FE02460B4660
:10169000F969C1E90623FB69D3E90A45FB69D3E986
:1016A0001001D7E90023FEF7A7FF02460B461046BC
:1016B0001946FB69D3E90C23FEF7E6FD02460B460B
:1016C00010461946FB69D3E90E23FEF7DDFD0246FD
:1016D0000B4610461946FB69D3E90023FEF7D6FDF9
:1016E00002460B4610461946D7E90023FEF784FF51
:1016F00002460B4620462946FEF7C8FD02460B4629
:10170000F969C1E90A23FB69D3E90C45FB69D3E90F
:101710001001D7E90023FEF76FFF02460B46204673
:101720002946FEF7B1FD02460B46F969C1E90C23D3
:10173000FB69D3E90E45FB69D3E91001D7E9002322
:10174000FEF75AFF02460B4620462946FEF79CFD4F
:1017500002460B46F969C1E90E23FB69D3E910453E
:10176000FB69D3E90201D7E90023FEF745FF0246F2
:101770000B4620462946FEF789FD02460B46F969CD
:10178000C1E91023FB69D3E90A01FB69D3E904230A
:10179000FEF77CFD02460B46C7E91223FB69D3E93D
:1017A0000A01D7E91223FFF751F802460B46C7E9B1
:1017B0000823FB69D3E90E01D7E91223FFF746F8A6
:1017C00002460B46C7E90A23FB69D3E90623D7E99A
:1017D0000401FEF759FD02460B46C7E91023FB69D9
:1017E000D3E90645D7E90801D7E91023FEF704FF3E
:1017F00002460B4620462946FEF748FD02460B46A8
:10180000F969C1E90623FB69D3E90845D7E90A016B
:10181000D7E91023FEF7F0FE02460B462046294684
:10182000FEF734FD02460B46F969C1E90823FB695E
:10183000D3E90A23C7E90E23FB69D3E90C23C7E9DF
:101840000C23FB69D3E90A45D7E90801D7E90E2340
:10185000FEF7D2FE02460B4620462946FEF714FD4F
:1018600002460B46F969C1E90A23FB69D3E90C4535
:10187000D7E90801D7E90C23FEF7BEFE02460B4666
:1018800020462946FEF700FD02460B46F969C1E9EC
:101890000C23FB69D3E90E45D7E90A01D7E90E23EA
:1018A000FEF7AAFE02460B4620462946FEF7ECFC50
:1018B00002460B46F969C1E90E23FB69D3E91045DD
:1018C000D7E90A01D7E90C23FEF796FE02460B463C
:1018D00020462946FEF7D8FC02460B46F969C1E9C5
:1018E0001023FB69D3E9062343EC172BB0EE470A1C
:1018F000F0EE670A5837BD46B0BD000080B483B033
:1019000000AF0F4B1B6E0E4A43F0010313660C4BE6
:101910001B6E03F001037B607B68094B9B6D084ADB
:1019200043F080539365064B9B6D03F080533B60FF
:101930003B6800BF0C37BD465DF8047B704700BFB5
:101940000010024080B400AFFEE780B400AFFEE7B5
:1019500080B400AFFEE780B400AFFEE780B400AF14
:10196000FEE780B400AF00BFBD465DF8047B704762
:1019700080B400AF00BFBD465DF8047B704780B403
:1019800000AF00BFBD465DF8047B704780B500AF77
:1019900000F006FA00BF80BD80B500AF024800F03D
:1019A000EFFF00BF80BD00BF9402002080B500AFF4
:1019B000024800F0FFFF00BF80BD00BF940200207E
:1019C00080B400AF01231846BD465DF8047B704724
:1019D00080B582B000AF7860396004F023FD034623
:1019E00016221A604FF0FF3318460837BD4680BDF7
:1019F00080B582B000AF78604FF0FF317868FFF7B4
:101A0000E7FFFEE780B586B000AFF860B9607A60A6
:101A100000237B610AE0AFF300800146BB685A1CDB
:101A2000BA60CAB21A707B6901337B617A697B68DC
:101A30009A42F0DB7B6818461837BD4680BD80B5FA
:101A400086B000AFF860B9607A6000237B6109E07E
:101A5000BB685A1CBA601B781846AFF300807B69DC
:101A600001337B617A697B689A42F1DB7B681846B7
:101A70001837BD4680BD80B483B000AF78604FF0AA
:101A8000FF3318460C37BD465DF8047B704780B4C1
:101A900083B000AF786039603B684FF400525A6001
:101AA000002318460C37BD465DF8047B704780B4B0
:101AB00083B000AF7860012318460C37BD465DF84F
:101AC000047B704780B485B000AFF860B9607A607D
:101AD000002318461437BD465DF8047B70470000AC
:101AE00080B586B000AF7860144A154BD31A7B617D
:101AF0007B693B61134B1B68002B02D1114B124ACF
:101B00001A60104B1A687B6813443A699A4207D2EC
:101B100004F088FC03460C221A604FF0FF3309E002
:101B2000084B1B68FB60074B1A687B681344054A27
:101B30001360FB6818461837BD4680BD00000120C1
:101B400000040000440300202005002080B400AF02
:101B5000064BD3F88830054A43F47003C2F8883046
:101B600000BFBD465DF8047B704700BF00ED00E09C
:101B700080B500AF144B154A1A60134B4FF47A32FC
:101B80005A60114B00229A600F4B0022DA600E4B14
:101B900000221A610C4B0C225A610B4B00229A61F5
:101BA000094B0022DA61084B00221A62064B002220
:101BB0005A62054803F03EF90346002B01D0FFF7B7
:101BC000FCFA00BF80BD00BF480300200044004075
:101BD00080B59EB000AF786007F1640300221A6000
:101BE0005A609A60DA601A6107F1100354220021EA
:101BF000184604F0C4FB7B681B68284A934248D10E
:101C000002233B6100237B6307F11003184602F0B7
:101C100029FE0346002B01D0FFF7CFFA204B9B6D26
:101C20001F4A43F4003393651D4B9B6D03F400334F
:101C3000FB60FB681A4BDB6C194A43F00103D36469
:101C4000174BDB6C03F00103BB60BB6804237B66AE
:101C50000223BB660023FB6603233B6707237B67E6
:101C600007F1640319464FF0904000F03DFA4FF43D
:101C700000437B660223BB660023FB6603233B67AE
:101C800003237B6707F1640319464FF0904000F08F
:101C90002BFA00BF7837BD4680BD00BF004400402E
:101CA00000100240DFF834D0FFF750FF0C480D4918
:101CB0000D4A002302E0D458C4500433C4188C42A7
:101CC000F9D30A4A0A4C002301E013600432A2420D
:101CD000FBD304F0ADFBFFF7D7F9FEE700000120CE
:101CE0000000002078020020D09000087802002038
:101CF00020050020FEE780B582B000AF0023FB7115
:101D0000032000F061F9002000F00EF80346002BDC
:101D100002D00123FB7101E0FFF7F0FDFB791846CB
:101D20000837BD4680BD000080B584B000AF786044
:101D30000023FB73174B1B78002B23D0164B1A681C
:101D4000144B1B7819464FF47A73B3FBF1F3B2FBD3
:101D5000F3F3184600F06DF90346002B0FD17B68B2
:101D60000F2B09D8002279684FF0FF3000F037F9C7
:101D70000A4A7B68136007E00123FB7304E0012338
:101D8000FB7301E00123FB73FB7B18461037BD4654
:101D900080BD00BF9800002090000020940000202B
:101DA00080B400AF064B1B781A46064B1B681344E1
:101DB000044A136000BFBD465DF8047B704700BF56
:101DC00098000020D003002080B400AF034B1B68B4
:101DD0001846BD465DF8047B704700BFD003002065
:101DE00080B584B000AF7860FFF7EEFFB8607B6825
:101DF000FB60FB68B3F1FF3F05D00A4B1B781A4626
:101E0000FB681344FB6000BFFFF7DEFF0246BB68C0
:101E1000D31AFA689A42F7D800BF00BF1037BD4600
:101E200080BD00BF9800002080B485B000AF78600E
:101E30007B6803F00703FB600C4BDB68BB60BA6890
:101E40004FF6FF031340BB60FB681A02BB681343E5
:101E500043F0BF6343F40033BB60044ABB68D36004
:101E600000BF1437BD465DF8047B704700ED00E00D
:101E700080B400AF044BDB681B0A03F0070318466D
:101E8000BD465DF8047B704700ED00E080B483B090
:101E900000AF0346FB7197F90730002B0BDBFB7992
:101EA00003F01F02074997F907305B09012000FA88
:101EB00002F241F8232000BF0C37BD465DF8047BD9
:101EC000704700BF00E100E080B483B000AF03467C
:101ED0003960FB7197F90730002B0ADB3B68DAB2F7
:101EE0000C4997F907301201D2B20B4483F8002352
:101EF0000AE03B68DAB20849FB7903F00F03043BC0
:101F00001201D2B20B441A7600BF0C37BD465DF801
:101F1000047B704700E100E000ED00E080B489B090
:101F200000AFF860B9607A60FB6803F00703FB61FB
:101F3000FB69C3F10703042B28BF0423BB61FB69C2
:101F40000433062B02D9FB69033B00E000237B61CD
:101F50004FF0FF32BB6902FA03F3DA43BB681A4061
:101F60007B699A404FF0FF317B6901FA03F3D94353
:101F70007B680B40134318462437BD465DF8047B4D
:101F80007047000080B582B000AF78607B68013B8D
:101F9000B3F1807F01D301230FE00A4A7B68013B44
:101FA00053600F214FF0FF30FFF78EFF054B0022EB
:101FB0009A60044B07221A60002318460837BD4672
:101FC00080BD00BF10E000E080B582B000AF786057
:101FD0007868FFF729FF00BF0837BD4680BD80B590
:101FE00086B000AF0346B9607A60FB7300237B6163
:101FF000FFF73EFF78617A68B9687869FFF78EFF6E
:10200000024697F90F3011461846FFF75DFF00BFF3
:102010001837BD4680BD80B582B000AF0346FB7166
:1020200097F907301846FFF731FF00BF0837BD4664
:1020300080BD80B582B000AF78607868FFF7A2FFFE
:10204000034618460837BD4680BD80B584B000AF52
:1020500078600023FB737B6893F82530DBB2022B9A
:1020600005D07B680422DA630123FB7329E07B68D7
:102070001B681A687B681B6822F00E021A607B6876
:102080001B681A687B681B6822F001021A607B6873
:102090005B6C03F01C027B681B6C012101FA02F2ED
:1020A0005A607B68012283F825207B68002283F830
:1020B00024207B689B6B002B03D07B689B6B78682C
:1020C0009847FB7B18461037BD4680BD80B483B06F
:1020D00000AF78607B6893F82530DBB218460C3788
:1020E000BD465DF8047B704780B487B000AF786070
:1020F000396000237B6148E13B681A6801217B69F4
:1021000001FA03F31340FB60FB68002B00F03A81F7
:102110003B685B6803F00303012B05D03B685B68F9
:1021200003F00303022B30D17B689B683B617B6922
:102130005B00032202FA03F3DB433A6913403B617D
:102140003B68DA687B695B0002FA03F33A69134380
:102150003B617B683A699A607B685B683B610122FE
:102160007B6902FA03F3DB433A6913403B613B6846
:102170005B681B0903F001027B6902FA03F33A6909
:1021800013433B617B683A695A603B685B6803F0C4
:102190000303032B17D07B68DB683B617B695B0023
:1021A000032202FA03F3DB433A6913403B613B68C5
:1021B0009A687B695B0002FA03F33A6913433B6157
:1021C0007B683A69DA603B685B6803F00303022BC3
:1021D00023D17B69DA087B68083253F822303B61EF
:1021E0007B6903F007039B000F2202FA03F3DB4332
:1021F0003A6913403B613B681A697B6903F0070346
:102200009B0002FA03F33A6913433B617B69DA08E6
:102210007B680832396943F822107B681B683B6190
:102220007B695B00032202FA03F3DB433A69134044
:102230003B613B685B6803F003027B695B0002FA69
:1022400003F33A6913433B617B683A691A603B6860
:102250005B6803F44033002B00F09480524B1B6EFC
:10226000514A43F0010313664F4B1B6E03F0010309
:10227000BB60BB684D4A7B699B08023352F8233030
:102280003B617B6903F003039B000F2202FA03F317
:10229000DB433A6913403B617B68B3F1904F0DD04B
:1022A0007B68434A934207D07B68424A934201D1FC
:1022B000022304E0072302E0012300E000237A69FF
:1022C00002F00302920093403A6913433B6137499D
:1022D0007B699B0802333A6941F82320364B9B689F
:1022E0003B61FB68DB433A6913403B613B685B68D9
:1022F00003F48013002B03D03A69FB6813433B615E
:102300002D4A3B6993602C4BDB683B61FB68DB43E8
:102310003A6913403B613B685B6803F40013002B90
:1023200003D03A69FB6813433B61234A3B69D3609E
:10233000214B5B683B61FB68DB433A6913403B61BF
:102340003B685B6803F40033002B03D03A69FB68F9
:1023500013433B61184A3B695360174B1B683B6151
:10236000FB68DB433A6913403B613B685B6803F4FD
:102370008033002B03D03A69FB6813433B610E4A5C
:102380003B6913607B6901337B613B681A687B6939
:1023900022FA03F3002B7FF4AFAE00BF00BF1C375F
:1023A000BD465DF8047B704700100240000001400C
:1023B00000040048000800480004014080B483B0D5
:1023C00000AF78600B467B8013467B707B78002BD8
:1023D00003D07A887B689A6102E07A887B689A6287
:1023E00000BF0C37BD465DF8047B704780B582B0F6
:1023F00000AF78607B68002B01D101238DE07B6802
:1024000093F84130DBB2002B06D17B68002283F8C1
:1024100040207868FEF7D0FD7B68242283F84120B5
:102420007B681B681A687B681B6822F001021A60CF
:102430007B685A687B681B6822F070621A617B684F
:102440001B689A687B681B6822F400429A607B686C
:10245000DB68012B07D17B689A687B681B6842F4B4
:1024600000429A6006E07B689A687B681B6842F4C9
:1024700004429A607B68DB68022B08D17B681B688A
:102480005A687B681B6842F400625A6007E07B6808
:102490001B685A687B681B6822F400625A607B687C
:1024A0001B685B687A68126843F0007343F400436A
:1024B00053607B681B68DA687B681B6822F4004203
:1024C000DA607B681A697B685B6942EA03017B68B2
:1024D0009B691A027B681B680A43DA607B68D969CA
:1024E0007B681A6A7B681B680A431A607B681B68F2
:1024F0001A687B681B6842F001021A607B68002240
:102500005A647B68202283F841207B6800221A638A
:102510007B68002283F84220002318460837BD4616
:1025200080BD000080B588B002AFF8600846114653
:102530001A4603467B810B463B811346FB80FB68B2
:1025400093F84130DBB2202B40F0F9803B6A002B3E
:1025500002D0BB8C002B05D1FB684FF400725A648B
:102560000123EDE0FB6893F84030012B01D10223F9
:10257000E6E0FB68012283F84020FFF725FC786144
:102580007B690093192301224FF40041F86800F0A1
:10259000ECFF0346002B01D00123D1E0FB68212290
:1025A00083F84120FB68402283F84220FB68002228
:1025B0005A64FB683A6A5A62FB68BA8C5A85FB68AF
:1025C00000225A63F8883A8979897B690193BB6A4A
:1025D00000930346F86800F081FB0346002B05D00A
:1025E000FB68002283F840200123A9E0FB685B8D93
:1025F0009BB2FF2B0ED9FB68FF221A85FB681B8D4F
:10260000DAB27989002300934FF08073F86801F003
:1026100065F90FE0FB685B8D9AB2FB681A85FB6871
:102620001B8DDAB27989002300934FF00073F868AC
:1026300001F054F97A69B96AF86800F0E5FF0346D9
:10264000002B01D001237BE0FB685B6A1A78FB68F2
:102650001B689A62FB685B6A5A1CFB685A62FB68DB
:102660005B8D9BB2013B9AB2FB685A85FB681B8D60
:10267000013B9AB2FB681A85FB685B8D9BB2002B0D
:1026800034D0FB681B8D002B30D17B690093BB6A73
:1026900000228021F86800F068FF0346002B01D07B
:1026A00001234DE0FB685B8D9BB2FF2B0ED9FB68CD
:1026B000FF221A85FB681B8DDAB27989002300930B
:1026C0004FF08073F86801F009F90FE0FB685B8D4B
:1026D0009AB2FB681A85FB681B8DDAB279890023F0
:1026E00000934FF00073F86801F0F8F8FB685B8D19
:1026F0009BB2002B9ED17A69B96AF86800F0CBFFD3
:102700000346002B01D001231AE0FB681B6820223E
:10271000DA61FB681B685968FB681A680A4B0B4052
:102720005360FB68202283F84120FB68002283F875
:102730004220FB68002283F84020002300E00223AF
:1027400018461837BD4680BD00E800FE80B588B049
:1027500002AFF860084611461A4603467B810B46D5
:102760003B811346FB80FB6893F84130DBB2202BA2
:1027700040F0FD803B6A002B02D0BB8C002B05D1C2
:10278000FB684FF400725A640123F1E0FB6893F890
:102790004030012B01D10223EAE0FB68012283F8DB
:1027A0004020FFF711FB78617B6900931923012218
:1027B0004FF40041F86800F0D8FE0346002B01D02A
:1027C0000123D5E0FB68222283F84120FB684022E8
:1027D00083F84220FB6800225A64FB683A6A5A6216
:1027E000FB68BA8C5A85FB6800225A63F8883A89DC
:1027F00079897B690193BB6A00930346F86800F00E
:10280000C1FA0346002B05D0FB68002283F8402064
:102810000123ADE0FB685B8D9BB2FF2B0ED9FB68FB
:10282000FF221A85FB681B8DDAB27989524B00931F
:102830004FF08073F86801F051F80FE0FB685B8D92
:102840009AB2FB681A85FB681B8DDAB279894A4B0C
:1028500000934FF00073F86801F040F87B69009333
:10286000BB6A00220421F86800F07FFE0346002BBB
:1028700001D001237CE0FB681B685A6AFB685B6A35
:10288000D2B21A70FB685B6A5A1CFB685A62FB681A
:102890001B8D013B9AB2FB681A85FB685B8D9BB26E
:1028A000013B9AB2FB685A85FB685B8D9BB2002B9B
:1028B00034D0FB681B8D002B30D17B690093BB6A41
:1028C00000228021F86800F050FE0346002B01D062
:1028D00001234DE0FB685B8D9BB2FF2B0ED9FB689B
:1028E000FF221A85FB681B8DDAB2798900230093D9
:1028F0004FF08073F86800F0F1FF0FE0FB685B8D2C
:102900009AB2FB681A85FB681B8DDAB279890023BD
:1029100000934FF00073F86800F0E0FFFB685B8DF8
:102920009BB2002B9AD17A69B96AF86800F0B3FEBD
:102930000346002B01D001231AE0FB681B6820220C
:10294000DA61FB681B685968FB681A680B4B0B401F
:102950005360FB68202283F84120FB68002283F843
:102960004220FB68002283F84020002300E002237D
:1029700018461837BD4680BD0024008000E800FEE0
:1029800080B584B000AF78607B681B689B69FB6092
:102990007B681B681B68BB607B685B6B002B05D08A
:1029A0007B685B6BBA68F9687868984700BF103736
:1029B000BD4680BD80B586B000AF78607B681B687F
:1029C0009B697B617B681B681B683B617B6903F4C7
:1029D0008073002B0FD03B6903F08003002B0AD0DB
:1029E0007B685B6C43F001027B685A647B681B6800
:1029F0004FF48072DA617B6903F48063002B0FD09F
:102A00003B6903F08003002B0AD07B685B6C43F0CA
:102A100008027B685A647B681B684FF48062DA6145
:102A20007B6903F40073002B0FD03B6903F0800334
:102A3000002B0AD07B685B6C43F002027B685A640F
:102A40007B681B684FF40072DA617B685B6CFB602B
:102A5000FB6803F00B03002B03D0F968786800F0E3
:102A60002BFC00BF1837BD4680BD80B483B000AFDB
:102A7000786000BF0C37BD465DF8047B704780B4BA
:102A800083B000AF786000BF0C37BD465DF8047BB3
:102A9000704780B483B000AF78600B46FB7013467C
:102AA0003B8000BF0C37BD465DF8047B704780B4A7
:102AB00083B000AF786000BF0C37BD465DF8047B83
:102AC000704780B483B000AF786000BF0C37BD465C
:102AD0005DF8047B704780B483B000AF786000BFBE
:102AE0000C37BD465DF8047B704780B586B000AFFB
:102AF000F860B9607A60FB68DB6A7B61BB683B6148
:102B0000FB6893F84030012B01D10223E1E0FB6820
:102B1000012283F840203B6903F02003002B08D0FA
:102B20007B6803F02003002B03D03969F86800F0BC
:102B30005DFA3B6903F01003002B4BD07B6803F078
:102B40001003002B46D0FB685B8D9BB2002B28D175
:102B5000FB6893F84130DBB2282B08D17B69B3F1D5
:102B6000007F04D13969F86800F052FB31E0FB685E
:102B700093F84130DBB2292B0ED17B6913F5803FEE
:102B80000AD0FB681B681022DA61F86800F0ABFC21
:102B9000F86800F0CFF91CE0FB681B681022DA61CE
:102BA0008FE0FB681B681022DA61FB685B6C43F006
:102BB0000402FB685A647B69002B03D07B69B3F184
:102BC000807F7ED1FB685B6C1946F86800F074FB6F
:102BD00077E076E03B6903F00403002B2FD07B689D
:102BE00003F00403002B2AD0FB685B8D9BB2002B03
:102BF00018D0FB681B685A6AFB685B6AD2B21A700D
:102C0000FB685B6A5A1CFB685A62FB681B8D013BC0
:102C10009AB2FB681A85FB685B8D9BB2013B9AB246
:102C2000FB685A85FB685B8D9BB2002B4BD17B699F
:102C300013F5803F47D0F86800F07CF943E03B692A
:102C400003F00803002B09D07B6803F00803002B76
:102C500004D03969F86800F0E9F835E03B6903F021
:102C60000203002B30D07B6803F00203002B2BD033
:102C7000FB685B8D9BB2002B18D0FB685B6A1A78EF
:102C8000FB681B689A62FB685B6A5A1CFB685A62A5
:102C9000FB685B8D9BB2013B9AB2FB685A85FB686F
:102CA0001B8D013B9AB2FB681A850DE07B69B3F17D
:102CB000807F02D07B69002B06D1F86800F03AF9DA
:102CC00002E000BF00E000BFFB68002283F8402064
:102CD000002318461837BD4680BD000080B586B079
:102CE00002AFF860084611461A4603467B810B4640
:102CF0003B811346FB80FB88DAB27989204B009335
:102D00004FF08073F86800F0E9FDFA69B969F86876
:102D100000F07AFC0346002B01D001232CE0FB8855
:102D2000012B05D13B89DAB2FB681B689A6215E07A
:102D30003B891B0A9BB2DAB2FB681B689A62FA698C
:102D4000B969F86800F060FC0346002B01D001234C
:102D500012E03B89DAB2FB681B689A62FB69009358
:102D6000BB6900228021F86800F0FFFB0346002BBE
:102D700001D0012300E0002318461037BD4680BD76
:102D80000020008080B586B002AFF860084611468A
:102D90001A4603467B810B463B811346FB80FB882A
:102DA000DAB27989204B00930023F86800F096FD91
:102DB000FA69B969F86800F027FC0346002B01D0D6
:102DC00001232CE0FB88012B05D13B89DAB2FB689B
:102DD0001B689A6215E03B891B0A9BB2DAB2FB685A
:102DE0001B689A62FA69B969F86800F00DFC03463D
:102DF000002B01D0012312E03B89DAB2FB681B688B
:102E00009A62FB690093BB6900224021F86800F0D8
:102E1000ACFB0346002B01D0012300E00023184641
:102E20001037BD4680BD00BF0020008080B584B053
:102E300000AF786039607B6893F84130DBB203F013
:102E40002803282B6AD17B681B689B691B0CDBB2AB
:102E500003F00103FB737B681B689B691B0C9BB22F
:102E600003F0FE03BB817B681B689B689BB2C3F3C6
:102E700009037B817B681B68DB689BB203F0FE0360
:102E80003B817B68DB68022B38D17B89DB099AB2F6
:102E9000BB8953409BB203F00603002B1CD17B89F6
:102EA000BB817B689B6C5A1C7B689A647B689B6CBB
:102EB000022B3BD17B6800229A647B681B68082246
:102EC000DA617B68002283F84020BA89FB7B1946CF
:102ED0007868FFF7DEFD29E03B89BB814FF40041B4
:102EE000786800F02DFD7B68002283F84020BA89C5
:102EF000FB7B19467868FFF7CCFD17E04FF40041E3
:102F0000786800F01DFD7B68002283F84020BA89B4
:102F1000FB7B19467868FFF7BCFD07E07B681B6800
:102F20000822DA617B68002283F8402000BF103756
:102F3000BD4680BD80B584B000AF78607B681B68FB
:102F40001B68FB607B68002283F84220FB6803F467
:102F50008043002B08D07B681B681A687B681B685D
:102F600022F480421A600CE0FB6803F40043002B5B
:102F700007D07B681B681A687B681B6822F40042D4
:102F80001A607B6893F84130DBB2292B12D17B6841
:102F9000282283F841207B6821221A630121786866
:102FA00000F0CEFC7B68002283F840207868FFF7B1
:102FB0005CFD17E07B6893F84130DBB22A2B11D11E
:102FC0007B68282283F841207B6822221A63022131
:102FD000786800F0B5FC7B68002283F840207868B0
:102FE000FFF74DFD00BF1037BD4680BD80B586B0F0
:102FF00000AF786039607B681B681B683B613B6889
:103000007B617B6893F84130FB737B681B682022EF
:10301000DA61FB7B212B02D0FB7B292B08D148F204
:103020000101786800F08CFC7B6821221A6319E0AA
:10303000FB7B222B02D0FB7B2A2B08D148F202011A
:10304000786800F07DFC7B6822221A630AE0FB7B33
:10305000282B07D148F20301786800F071FC7B68E7
:1030600000221A637B681B685A687B681B6842F4FD
:1030700000425A607B681B6859687B681A68624B1B
:103080000B405360786800F02EFA3B6903F48043EC
:10309000002B13D07B681B681A687B681B6822F4BE
:1030A00080421A607B689B6B002B1FD07B689B6BF8
:1030B0001B685B689AB27B685A8517E03B6903F42A
:1030C0000043002B12D07B681B681A687B681B6862
:1030D00022F400421A607B68DB6B002B06D07B6811
:1030E000DB6B1B685B689AB27B685A857B6903F06F
:1030F0000403002B20D07B6923F004037B617B68F1
:103100001B685A6A7B685B6AD2B21A707B685B6A1A
:103110005A1C7B685A627B681B8D002B0CD07B6825
:103120001B8D013B9AB27B681A857B685B8D9BB2D5
:10313000013B9AB27B685A857B685B8D9BB2002B02
:1031400005D07B685B6C43F004027B685A647B6843
:10315000002283F842207B6800225A637B685B6C04
:10316000002B10D07B685B6C1946786800F0A4F8DF
:103170007B6893F84130DBB2282B41D179697868BC
:1031800000F046F83CE07B68DB6A13F5803F14D022
:103190007868FFF7CFFE7B681C4ADA627B682022E2
:1031A00083F841207B6800221A637B68002283F841
:1031B00040207868FFF77BFC22E07B6893F8413081
:1031C000DBB2222B0ED17B68202283F841207B6862
:1031D00000221A637B68002283F840207868FFF79A
:1031E0004EFC0DE07B68202283F841207B680022A2
:1031F0001A637B68002283F840207868FFF735FC6B
:1032000000BF1837BD4680BD00E800FE0000FFFF8C
:1032100080B582B000AF786039607B68254ADA6299
:103220007B6800221A637B68202283F841207B6838
:10323000002283F842207B6800225A633B6803F037
:103240000403002B22D07B681B685A6A7B685B6A88
:10325000D2B21A707B685B6A5A1C7B685A627B68C0
:103260001B8D002B12D07B681B8D013B9AB27B68B3
:103270001A857B685B8D9BB2013B9AB27B685A854D
:103280007B685B6C43F004027B685A6448F203017C
:10329000786800F055FB7B681B681022DA617B6858
:1032A000002283F840207868FFF701FC00BF083750
:1032B000BD4680BD0000FFFF80B584B000AF7860E0
:1032C00039607B6893F84130FB737B68002283F898
:1032D00042207B686D4ADA627B6800225A857B68EF
:1032E0005A6C3B681A437B685A64FB7B282B05D0D9
:1032F000FB7B292B02D0FB7B2A2B0BD10321786887
:1033000000F01EFB7B68282283F841207B68604A1E
:103310005A6330E048F20301786800F011FB7868E6
:1033200000F0E1F87B6893F84130DBB2602B1FD0EE
:103330007B68202283F841207B681B689B6903F02F
:103340002003202B14D17B681B689B6903F01003BA
:10335000102B09D17B681B681022DA617B685B6CDB
:1033600043F004027B685A647B681B682022DA61A0
:103370007B6800225A637B681B6BBB607B689B6B1E
:10338000002B39D0BB68112B02D0BB68212B33D165
:103390007B681B681B6803F48043B3F5804F07D13B
:1033A0007B681B681A687B681B6822F480421A607D
:1033B0007B689B6B1846FEF789FE0346012B17D0EE
:1033C0007B689B6B334A9A637B68002283F84020BA
:1033D0007B689B6B1846FEF738FE0346002B4DD0EA
:1033E0007B689B6B9B6B7A68926B1046984745E0B5
:1033F000786800F051F841E07B68DB6B002B39D036
:10340000BB68122B02D0BB68222B33D17B681B68B0
:103410001B6803F40043B3F5004F07D17B681B68BA
:103420001A687B681B6822F400421A607B68DB6BB9
:103430001846FEF74BFE0346012B17D07B68DB6B6B
:10344000144A9A637B68002283F840207B68DB6B18
:103450001846FEF7FAFD0346002B11D07B68DB6BA4
:103460009B6B7A68D26B1046984709E0786800F049
:1034700013F805E0786800F00FF802E000BF00E004
:1034800000BF00BF1037BD4680BD00BF0000FFFF7A
:10349000EB2A00082F35000880B582B000AF7860B5
:1034A0007B6893F84130DBB2602B0ED17B68202221
:1034B00083F841207B6800221A637B68002283F82E
:1034C00040207868FFF707FB09E07B6800221A6359
:1034D0007B68002283F840207868FFF7F2FA00BF8B
:1034E0000837BD4680BD80B483B000AF78607B688C
:1034F0001B689B6903F00203022B03D17B681B68E6
:1035000000229A627B681B689B6903F00103012B10
:1035100007D07B681B689A697B681B6842F00102D0
:103520009A6100BF0C37BD465DF8047B704780B5DB
:1035300084B000AF78607B689B6AFB60FB689B6B24
:10354000002B03D0FB689B6B00229A63FB68DB6B4C
:10355000002B03D0FB68DB6B00229A63F868FFF74F
:103560009BFF00BF1037BD4680BD80B584B000AF63
:10357000F860B9603B601346FB7131E03B68B3F122
:10358000FF3F2DD0FEF720FC0246BB69D31A3A68F4
:103590009A4202D33B68002B22D1FB681B689A69D0
:1035A000BB681340BA689A420CBF01230023DBB208
:1035B0001A46FB799A4213D1FB685B6C43F02002F8
:1035C000FB685A64FB68202283F84120FB680022D4
:1035D00083F84220FB68002283F8402001230FE09B
:1035E000FB681B689A69BB681340BA689A420CBFB3
:1035F00001230023DBB21A46FB799A42BED0002396
:1036000018461037BD4680BD80B584B000AFF86065
:10361000B9607A6033E07A68B968F86800F07EF8DB
:103620000346002B01D0012331E0BB68B3F1FF3F1B
:1036300025D0FEF7C9FB02467B68D31ABA689A42C6
:1036400002D3BB68002B1AD1FB681B689B6903F08F
:103650000203022B13D0FB685B6C43F02002FB6873
:103660005A64FB68202283F84120FB68002283F81B
:103670004220FB68002283F84020012307E0FB681A
:103680001B689B6903F00203022BC4D10023184678
:103690001037BD4680BD80B584B000AFF860B9601A
:1036A0007A602FE07A68B968F86800F037F8034666
:1036B000002B01D001232DE0FEF786FB02467B683C
:1036C000D31ABA689A4202D3BB68002B1AD1FB689E
:1036D0001B689B6903F02003202B13D0FB685B6CF5
:1036E00043F02002FB685A64FB68202283F84120E3
:1036F000FB68002283F84220FB68002283F8402008
:10370000012307E0FB681B689B6903F02003202B63
:10371000C8D1002318461037BD4680BD80B58AB099
:1037200000AFF860B9607A60002387F82730FB6843
:103730001B689B69BB6100233B627B68FB61BB69C3
:1037400003F01003002B68D0FB681B681022DA61BD
:1037500049E0BB68B3F1FF3F45D0FEF735FB0246B9
:10376000FB69D31ABA689A4202D3BB68002B3AD1DC
:10377000FB681B685B6803F480437B61FB6893F81C
:103780004230FB74FB681B689B6903F40043B3F58C
:10379000004F21D17B69B3F5804F1DD0FB7C202BDE
:1037A0001AD0FB681B685A68FB681B6842F48042A9
:1037B0005A60FEF709FBF8610EE0FEF705FB0246D2
:1037C000FB69D31A192B07D93B6A43F020033B62EC
:1037D000012387F8273006E0FB681B689B6903F02C
:1037E0002003202BE9D1FB681B689B6903F02003B1
:1037F000202B03D097F82730002BAAD097F827303A
:10380000002B03D1FB681B682022DA613B6A43F07E
:1038100004033B62012387F82730FB681B689B6920
:10382000BB61BB6903F48073002B0BD03B6A43F090
:1038300001033B62FB681B684FF48072DA6101236D
:1038400087F82730BB6903F48063002B0BD03B6AF9
:1038500043F008033B62FB681B684FF48062DA6147
:10386000012387F82730BB6903F40073002B0BD0CA
:103870003B6A43F002033B62FB681B684FF4007233
:10388000DA61012387F8273097F82730002B1CD006
:10389000F868FFF728FEFB681B685968FB681A6820
:1038A0000D4B0B405360FB685A6C3B6A1A43FB6834
:1038B0005A64FB68202283F84120FB68002283F8C9
:1038C0004220FB68002283F8402097F827301846F2
:1038D0002837BD4680BD00BF00E800FE80B487B039
:1038E00000AFF8607B600B467B8113467B727B895F
:1038F000C3F309027B7A1B0403F47F031A437B683A
:103900001A433B6A134323F000437B61FB681B6847
:103910005A683B6A5B0D03F48061084B0B43DB4341
:1039200002EA0301FB681B687A690A435A6000BF18
:103930001C37BD465DF8047B704700BFFF63FF0383
:1039400080B485B000AF78600B467B800023FB60BD
:103950007B8803F00103002B0FD0FB6843F0420388
:10396000FB607B6893F84130DBB203F02803282B1F
:1039700003D0FB6843F0B003FB607B8803F00203D5
:10398000002B0FD0FB6843F04403FB607B6893F887
:103990004130DBB203F02803282B03D0FB6843F04F
:1039A000B003FB60B7F90230002B03DAFB6843F089
:1039B000B803FB607B88102B03D1FB6843F09003B6
:1039C000FB607B88202B03D1FB6843F02003FB6066
:1039D0007B88402B03D1FB6843F04003FB607B688E
:1039E0001B681968FB68DA437B681B680A401A6029
:1039F00000BF1437BD465DF8047B704780B483B0C8
:103A000000AF786039607B6893F84130DBB2202BDF
:103A100038D17B6893F84030012B01D1022332E08A
:103A20007B68012283F840207B68242283F84120B0
:103A30007B681B681A687B681B6822F001021A60A9
:103A40007B681B681A687B681B6822F480521A60C6
:103A50007B681B6819687B681B683A680A431A60B0
:103A60007B681B681A687B681B6842F001021A6059
:103A70007B68202283F841207B68002283F8402065
:103A8000002300E0022318460C37BD465DF8047B96
:103A9000704780B485B000AF786039607B6893F878
:103AA0004130DBB2202B39D17B6893F84030012BB9
:103AB00001D1022333E07B68012283F840207B6838
:103AC000242283F841207B681B681A687B681B6886
:103AD00022F001021A607B681B681B68FB60FB68B0
:103AE00023F47063FB603B681B02FA681343FB60BE
:103AF0007B681B68FA681A607B681B681A687B68B9
:103B00001B6842F001021A607B68202283F8412082
:103B10007B68002283F84020002300E0022318463F
:103B20001437BD465DF8047B7047000080B400AFD9
:103B3000044B1B6803F4C0631846BD465DF8047B64
:103B4000704700BF0070004080B485B000AF78605F
:103B50007B68B3F5007F30D1234B1B6803F4C0634F
:103B6000B3F5007F38D0204B1B6823F4C0631E4A96
:103B700043F4007313601D4B1B68322202FB03F3F6
:103B80001B4AA2FB03239B0C0133FB6002E0FB6892
:103B9000013BFB60144B5B6903F48063B3F5806FFA
:103BA00002D1FB68002BF2D10F4B5B6903F48063F9
:103BB000B3F5806F10D103230FE00B4B1B6803F4A8
:103BC000C063B3F5806F07D0074B1B6823F4C06355
:103BD000054A43F480631360002318461437BD463A
:103BE0005DF8047B704700BF00700040900000202B
:103BF00083DE1B4380B588B000AF78607B68002B04
:103C000002D1012300F002BC964B9B6803F00C0329
:103C1000BB61944BDB6803F003037B617B681B682B
:103C200003F01003002B00F0E480BB69002B07D0E9
:103C3000BB690C2B40F08B807B69012B40F08780A7
:103C4000884B1B6803F00203002B05D07B689B693F
:103C5000002B01D10123D9E37B681A6A814B1B68D1
:103C600003F00803002B04D07E4B1B6803F0F00325
:103C700005E07C4BD3F894301B0903F0F00393422A
:103C800023D27B681B6A184600F08CFD0346002B8C
:103C900001D00123BAE3734B1B68724A43F0080357
:103CA0001360704B1B6823F0F0027B681B6A6D4940
:103CB00013430B606B4B5B6823F47F427B68DB69CB
:103CC0001B02684913434B6025E0664B1B68654A3D
:103CD00043F008031360634B1B6823F0F0027B681A
:103CE0001B6A604913430B605E4B5B6823F47F42A1
:103CF0007B68DB691B025B4913434B60BB69002B8C
:103D000009D17B681B6A184600F04CFD0346002B66
:103D100001D001237AE300F081FC0246514B9B68FD
:103D20001B0903F00F035049CB5C03F01F0322FA79
:103D300003F34E4A13604E4B1B681846FDF7F4FF21
:103D40000346FB73FB7B002B52D0FB7B5EE37B685F
:103D50009B69002B32D0434B1B68424A43F001035E
:103D60001360FEF731F8386108E0FEF72DF80246DF
:103D70003B69D31A022B01D9032347E3394B1B6854
:103D800003F00203002BF0D0364B1B68354A43F09A
:103D900008031360334B1B6823F0F0027B681B6A37
:103DA000304913430B602F4B5B6823F47F427B68E1
:103DB000DB691B022B4913434B601AE0294B1B683C
:103DC000284A23F001031360FDF7FEFF386108E085
:103DD000FDF7FAFF02463B69D31A022B01D90323F0
:103DE00014E3204B1B6803F00203002BF0D100E02A
:103DF00000BF7B681B6803F00103002B73D0BB6915
:103E0000082B05D0BB690C2B0ED17B69032B0BD182
:103E1000144B1B6803F40033002B63D07B685B6892
:103E2000002B5FD10123F1E27B685B68B3F5803F33
:103E300006D10C4B1B680B4A43F48033136025E01A
:103E40007B685B68B3F5A02F14D1064B1B68054A4D
:103E500043F480231360034B1B68024A43F480330E
:103E6000136013E000100240908C000890000020C6
:103E700094000020A04B1B689F4A23F480331360FA
:103E80009D4B1B689C4A23F4802313607B685B680E
:103E9000002B13D0FDF798FF386108E0FDF794FF81
:103EA00002463B69D31A642B01D90323AEE2924B3D
:103EB0001B6803F40033002BF0D014E0FDF784FFFF
:103EC000386108E0FDF780FF02463B69D31A642B96
:103ED00001D903239AE2884B1B6803F40033002BBB
:103EE000F0D100E000BF7B681B6803F00203002BE9
:103EF00060D0BB69042B05D0BB690C2B19D17B6941
:103F0000022B16D17C4B1B6803F48063002B05D079
:103F10007B68DB68002B01D1012377E2764B5B687D
:103F200023F0F8527B681B691B06734913434B60EF
:103F300040E07B68DB68002B23D06F4B1B686E4A28
:103F400043F480731360FDF73FFF386108E0FDF72D
:103F50003BFF02463B69D31A022B01D9032355E2EA
:103F6000654B1B6803F48063002BF0D0624B5B68E9
:103F700023F0F8527B681B691B065F4913434B60B3
:103F800018E05D4B1B685C4A23F480731360FDF7F7
:103F90001BFF386108E0FDF717FF02463B69D31AA3
:103FA000022B01D9032331E2534B1B6803F48063D6
:103FB000002BF0D17B681B6803F00803002B3CD07A
:103FC0007B685B69002B1CD04B4BD3F894304A4A7A
:103FD00043F00103C2F89430FDF7F6FE386108E0C3
:103FE000FDF7F2FE02463B69D31A022B01D90323E7
:103FF0000CE2414BD3F8943003F00203002BEFD0D6
:104000001BE03D4BD3F894303B4A23F00103C2F848
:104010009430FDF7D9FE386108E0FDF7D5FE024681
:104020003B69D31A022B01D90323EFE1324BD3F8BA
:10403000943003F00203002BEFD17B681B6803F080
:104040000403002B00F0A6800023FB772A4B9B6D16
:1040500003F08053002B0DD1274B9B6D264A43F074
:1040600080539365244B9B6D03F08053BB60BB680A
:104070000123FB77214B1B6803F48073002B18D1BD
:104080001E4B1B681D4A43F480731360FDF79CFEB2
:10409000386108E0FDF798FE02463B69D31A022B0F
:1040A00001D90323B2E1154B1B6803F48073002B85
:1040B000F0D07B689B68012B08D10F4BD3F8903070
:1040C0000D4A43F00103C2F8903029E07B689B68F9
:1040D000052B15D1084BD3F89030074A43F0040361
:1040E000C2F89030044BD3F89030034A43F00103F8
:1040F000C2F8903014E000BF001002400070004091
:104100009A4BD3F89030994A23F00103C2F89030CB
:10411000964BD3F89030954A23F00403C2F89030C0
:104120007B689B68002B16D0FDF74EFE38610AE0D5
:10413000FDF74AFE02463B69D31A41F288329342A8
:1041400001D9032362E1894BD3F8903003F00203D5
:10415000002BEDD015E0FDF737FE38610AE0FDF7E2
:1041600033FE02463B69D31A41F28832934201D9A9
:1041700003234BE17D4BD3F8903003F00203002B77
:10418000EDD1FB7F012B05D1784B9B6D774A23F056
:10419000805393657B681B6803F02003002B3CD0A1
:1041A0007B685B6A002B1CD0704BD3F898306F4A49
:1041B00043F00103C2F89830FDF706FE386108E0CD
:1041C000FDF702FE02463B69D31A022B01D90323F5
:1041D0001CE1664BD3F8983003F00203002BEFD0BC
:1041E0001BE0624BD3F89830604A23F00103C2F819
:1041F0009830FDF7E9FD386108E0FDF7E5FD02467E
:104200003B69D31A022B01D90323FFE0574BD3F8A4
:10421000983003F00203002BEFD17B689B6A002BE0
:1042200000F0F3807B689B6A022B40F0C9804F4B03
:10423000DB687B617B6903F003027B68DB6A9A427F
:104240002CD17B6903F070027B681B6B013B1B0167
:104250009A4223D17B6903F4FE427B685B6B1B02AD
:104260009A421BD17B6903F078427B689B6BDB062B
:104270009A4213D17B6903F4C0027B68DB6B5B0855
:10428000013B5B059A4209D17B6903F0C0627B6800
:104290001B6C5B08013B5B069A426BD0BB690C2B25
:1042A00062D0324B1B6803F08063002B01D00123E6
:1042B000ACE02E4B1B682D4A23F080731360FDF792
:1042C00083FD386108E0FDF77FFD02463B69D31AA4
:1042D000022B01D9032399E0244B1B6803F00073E0
:1042E000002BF0D1214BDA68214B13407A68D16A58
:1042F0007A68126B013A120111437A68526B12020A
:1043000011437A68D26B5208013A520511437A6818
:10431000126C5208013A520611437A68926BD20627
:104320000A4312491343CB60104B1B680F4A43F0FA
:10433000807313600D4BDB680C4A43F08073D360CD
:10434000FDF742FD386108E0FDF73EFD02463B699E
:10435000D31A022B01D9032358E0044B1B6803F046
:104360000073002BF0D050E001234FE0001002401A
:104370008C809D01274B1B6803F00073002B44D1F8
:10438000244B1B68234A43F080731360214BDB6886
:10439000204A43F08073D360FDF716FD386108E0D2
:1043A000FDF712FD02463B69D31A022B01D9032304
:1043B0002CE0184B1B6803F00073002BF0D024E0B6
:1043C000BB690C2B1FD0134B1B68124A23F0807360
:1043D0001360FDF7F9FC386108E0FDF7F5FC0246D3
:1043E0003B69D31A022B01D903230FE0094B1B6849
:1043F00003F00073002BF0D1064BDA680549064B39
:104400001340CB6001E0012300E000231846203771
:10441000BD4680BD00100240FCFFEEFE80B584B0BA
:1044200000AF786039607B68002B01D10123E7E0A1
:10443000754B1B6803F007033A689A4210D9724B18
:104440001B6823F0070270493B6813430B606E4BF7
:104450001B6803F007033A689A4201D00123CFE0BA
:104460007B681B6803F00203002B10D07B689A68FE
:10447000664B9B6803F0F0039A4208D9634B9B6834
:1044800023F0F0027B689B68604913438B607B6874
:104490001B6803F00103002B4CD07B685B68032B87
:1044A00007D15A4B1B6803F00073002B21D1012365
:1044B000A6E07B685B68022B07D1544B1B6803F4B2
:1044C0000033002B15D101239AE07B685B68002B39
:1044D00007D14E4B1B6803F00203002B09D10123C7
:1044E0008EE04A4B1B6803F48063002B01D101234B
:1044F00086E0464B9B6823F003027B685B68434978
:1045000013438B60FDF760FCF8600AE0FDF75CFC8C
:104510000246FB68D31A41F28832934201D9032341
:104520006EE03A4B9B6803F00C027B685B689B0073
:104530009A42EBD17B681B6803F00203002B10D07A
:104540007B689A68314B9B6803F0F0039A4208D26B
:104550002E4B9B6823F0F0027B689B682B4913432A
:104560008B60294B1B6803F007033A689A4210D20C
:10457000254B1B6823F0070223493B6813430B605C
:10458000214B1B6803F007033A689A4201D00123CC
:1045900036E07B681B6803F00403002B08D01B4B3C
:1045A0009B6823F4E0627B68DB68184913438B60E7
:1045B0007B681B6803F00803002B09D0134B9B6832
:1045C00023F460527B681B69DB00104913438B6046
:1045D00000F024F802460D4B9B681B0903F00F0303
:1045E0000B49CB5C03F01F0322FA03F3094A136063
:1045F000094B1B681846FDF797FB0346FB72FB7AD5
:1046000018461037BD4680BD002002400010024011
:10461000908C0008900000209400002080B489B0A5
:1046200000AF0023FB610023BB613E4B9B6803F09E
:104630000C033B613B4BDB6803F00303FB603B690E
:10464000002B05D03B690C2B21D1FB68012B1ED11F
:10465000344B1B6803F00803002B07D1314BD3F810
:1046600094301B0A03F00F03FB6105E02D4B1B6820
:104670001B0903F00F03FB612B4AFB6952F823303F
:10468000FB613B69002B0DD1FB69BB610AE03B6913
:10469000042B02D1254BBB6104E03B69082B01D1FF
:1046A000234BBB613B690C2B34D11E4BDB6803F001
:1046B0000303BB60BB68022B03D0BB68032B03D092
:1046C00005E01A4B7B6105E0194B7B6102E0FB6959
:1046D0007B6100BF134BDB681B0903F00703013349
:1046E0007B60104BDB681B0A03F07F037A6903FBD6
:1046F00002F27B68B2FBF3F37B610A4BDB685B0E73
:1047000003F0030301335B003B607A693B68B2FB53
:10471000F3F3BB61BB6918462437BD465DF8047BE3
:10472000704700BF00100240A88C00080024F4006D
:1047300000127A0080B400AF034B1B681846BD46D8
:104740005DF8047B704700BF9000002080B500AF8B
:10475000FFF7F0FF0246064B9B681B0A03F00703B6
:104760000449CB5C03F01F0322FA03F3184680BD13
:1047700000100240A08C000880B500AFFFF7DAFF00
:104780000246064B9B68DB0A03F007030449CB5C37
:1047900003F01F0322FA03F3184680BD0010024005
:1047A000A08C000880B586B000AF786000233B6124
:1047B0002A4B9B6D03F08053002B03D0FFF7B6F913
:1047C000786114E0254B9B6D244A43F08053936538
:1047D000224B9B6D03F08053FB60FB68FFF7A6F94B
:1047E00078611E4B9B6D1D4A23F0805393657B6956
:1047F000B3F5007F0BD17B68802B19D97B68A02B88
:1048000002D902233B6113E001233B6110E07B6886
:10481000802B02D903233B610AE07B68802B02D105
:1048200002233B6104E07B68702B01D101233B61D3
:104830000B4B1B6823F0070209493B6913430B60CC
:10484000074B1B6803F007033A699A4201D0012322
:1048500000E0002318461837BD4680BD0010024016
:104860000020024080B586B000AF78600023FB7462
:104870000023BB747B681B6803F40063002B31D0FA
:104880007B68DB6BB3F5400F1AD0B3F5400F14D83B
:10489000002B09D0B3F5000F0FD15D4BDB685C4AEC
:1048A00043F48033D3600CE07B6804330021184666
:1048B00000F0CEF90346FB7403E00123FB7400E033
:1048C00000BFFB7C002B0BD1514BD3F8883023F475
:1048D00040027B68DB6B4E491343C1F8883001E02E
:1048E000FB7CBB747B681B6803F40033002B00F077
:1048F0009E8000237B74464B9B6D03F08053002BFE
:1049000001D1012300E00023002B0DD0404B9B6D13
:104910003F4A43F0805393653D4B9B6D03F08053BA
:10492000BB60BB6801237B743A4B1B68394A43F474
:1049300080731360FDF748FAF86009E0FDF744FA68
:104940000246FB68D31A022B02D90323FB7405E04D
:10495000304B1B6803F48073002BEFD0FB7C002BE3
:104960005AD12B4BD3F8903003F440737B617B69B1
:10497000002B1ED07B681B6D7A699A4219D0244B9C
:10498000D3F8903023F440737B61214BD3F89030FF
:104990001F4A43F48033C2F890301D4BD3F8903057
:1049A0001B4A23F48033C2F89030194A7B69C2F85D
:1049B00090307B6903F00103002B16D0FDF704FA59
:1049C000F8600BE0FDF700FA0246FB68D31A41F2EB
:1049D0008832934202D90323FB7406E00C4BD3F8D0
:1049E000903003F00203002BECD0FB7C002B0BD1AA
:1049F000074BD3F8903023F440727B681B6D044959
:104A00001343C1F8903009E0FB7CBB7406E000BFA3
:104A10000010024000700040FB7CBB747B7C012BCB
:104A200005D18A4B9B6D894A23F0805393657B683F
:104A30001B6803F00103002B0AD0844BD3F88830A5
:104A400023F003027B681B6A80491343C1F8883056
:104A50007B681B6803F00203002B0AD07B4BD3F862
:104A6000883023F00C027B685B6A78491343C1F8F5
:104A700088307B681B6803F02003002B0AD0734B3F
:104A8000D3F8883023F440627B689B6A6F491343F4
:104A9000C1F888307B681B6803F40073002B0AD0D0
:104AA0006A4BD3F8883023F440227B685B6B6749FC
:104AB0001343C1F888307B681B6803F48063002BC4
:104AC0000AD0624BD3F8883023F440127B689B6B8A
:104AD0005E491343C1F888307B681B6803F04003CC
:104AE000002B0AD0594BD3F8883023F440527B680E
:104AF000DB6A56491343C1F888307B681B6803F4AE
:104B00008073002B0AD0514BD3F8883023F4403205
:104B10007B681B6B4D491343C1F888307B681B6869
:104B200003F40053002B28D0484BD3F8883023F0EF
:104B300040627B681B6C45491343C1F888307B6831
:104B40001B6CB3F1006F06D1404BDB683F4A43F466
:104B50008013D36011E07B681B6CB3F1806F0CD1C4
:104B60007B6804330121184600F072F80346FB7499
:104B7000FB7C002B01D0FB7CBB747B681B6803F4BF
:104B80008023002B28D0314BD3F8883023F04062AB
:104B90007B685B6C2D491343C1F888307B685B6C84
:104BA000B3F1006F06D1294BDB68284A43F4801328
:104BB000D36011E07B685B6CB3F1806F0CD17B68D4
:104BC00004330121184600F043F80346FB74FB7CD4
:104BD000002B01D0FB7CBB747B681B6803F4804313
:104BE000002B1CD0194BD3F8883023F040527B683F
:104BF0009B6C16491343C1F888307B689B6CB3F1FA
:104C0000805F0CD17B6804330221184600F020F845
:104C10000346FB74FB7C002B01D0FB7CBB747B68E0
:104C20001B6803F40043002B0AD0084BD3F88830EC
:104C300023F080427B68DB6C04491343C1F8883061
:104C4000BB7C18461837BD4680BD00BF001002402F
:104C500080B584B000AF786039600023FB73744B7B
:104C6000DB6803F00303002B18D0714BDB6803F003
:104C700003027B681B689A420DD17B681B68002B7E
:104C800009D06B4BDB681B0903F007035A1C7B68D8
:104C90005B689A4247D00123FB7344E07B681B6842
:104CA000032B18D0032B25D8012B02D0022B09D0BF
:104CB00020E05F4B1B6803F00203002B1DD1012392
:104CC000FB731AE05A4B1B6803F48063002B16D168
:104CD0000123FB7313E0564B1B6803F40033002BD6
:104CE0000FD1534B1B6803F48023002B09D1012300
:104CF000FB7306E00123FB7304E000BF02E000BF8A
:104D000000E000BFFB7B002B0DD1494BDB6823F09B
:104D100073027B6819687B685B68013B1B010B436E
:104D200043491343CB60FB7B002B7CD1404B1B687A
:104D30003F4A23F080631360FDF746F8B86009E04E
:104D4000FDF742F80246BB68D31A022B02D90323AF
:104D5000FB7305E0364B1B6803F00063002BEFD1BB
:104D6000FB7B002B5FD13B68002B10D1304B1B69C4
:104D700023F0784323F4FE437A68926811027A683C
:104D8000D268D2060A432A4913430B6127E03B68E5
:104D9000012B12D1264B1B6923F4C00323F4FE43DD
:104DA0007A68926811027A6812695208013A5205CB
:104DB0000A431F4913430B6111E01D4B1B6923F08C
:104DC000C06323F4FE437A68926811027A685269DC
:104DD0005208013A52060A43154913430B61144B1A
:104DE0001B68134A43F080631360FCF7EDFFB86063
:104DF00009E0FCF7E9FF0246BB68D31A022B02D98F
:104E00000323FB7305E00A4B1B6803F00063002BD0
:104E1000EFD0FB7B002B06D1054B1A697B689B69A1
:104E2000034913430B61FB7B18461037BD4680BD19
:104E30000010024080B582B000AF78607B68002B24
:104E400001D1012340E07B68DB6F002B06D17B683A
:104E5000002283F878207868FCF7BAFE7B68242269
:104E6000DA677B681B681A687B681B6822F001029E
:104E70001A607B685B6A002B02D0786800F0DEFA6B
:104E8000786800F0AFF80346012B01D101231BE045
:104E90007B681B685A687B681B6822F490425A60E2
:104EA0007B681B689A687B681B6822F02A029A60FC
:104EB0007B681B681A687B681B6842F001021A60F5
:104EC000786800F05DFB034618460837BD4680BD94
:104ED00080B58AB002AFF860B9603B601346FB80D2
:104EE000FB68DB6F202B78D1BB68002B02D0FB88DE
:104EF000002B01D1012371E0FB680022C3F884205C
:104F0000FB682122DA67FCF75FFF7861FB68FA88AB
:104F1000A3F85020FB68FA88A3F85220FB689B682E
:104F2000B3F5805F08D1FB681B69002B04D1002317
:104F3000FB61BB68BB6103E0BB68FB610023BB6135
:104F400030E03B6800937B6900228021F86800F024
:104F5000BFFB0346002B04D0FB682022DA67032343
:104F60003CE0FB69002B0BD1BB691A88FB681B680E
:104F7000C2F3080292B21A85BB690233BB6108E032
:104F8000FB691A78FB681B6892B21A85FB690133CA
:104F9000FB61FB68B3F852309BB2013B9AB2FB68ED
:104FA000A3F85220FB68B3F852309BB2002BC8D153
:104FB0003B6800937B6900224021F86800F088FB81
:104FC0000346002B04D0FB682022DA67032305E0A8
:104FD000FB682022DA67002300E00223184620370E
:104FE000BD4680BD2DE9B04F8AB000AFF860002308
:104FF00087F82230FB689A68FB681B691A43FB68D4
:105000005B691A43FB68DB6913437B62FB681B68BF
:105010001A68B44B1340FA681268796A0B4313603C
:10502000FB681B685B6823F44051FB68DA68FB6827
:105030001B680A435A60FB689B697B62FB681B68BC
:10504000A94A934204D0FB681B6A7A6A13437B62C5
:10505000FB681B689B6823F43061FB681B687A6AF5
:105060000A439A60FB681B68A04A934226D1A04B72
:10507000D3F8883003F00303032B1BD801A252F8A6
:1050800023F000BF95500008A55000089D5000086F
:10509000AD500008012387F8233080E0022387F811
:1050A00023307CE0042387F8233078E0082387F856
:1050B000233074E0102387F8233070E0FB681B680E
:1050C0008C4A934238D18A4BD3F8883003F00C03D2
:1050D0000C2B2DD801A252F823F000BF115100086B
:1050E00031510008315100083151000821510008A8
:1050F00031510008315100083151000819510008A0
:10510000315100083151000831510008295100087F
:10511000002387F8233042E0022387F823303EE063
:10512000042387F823303AE0082387F8233036E059
:10513000102387F8233032E0FB681B686A4A9342E9
:105140002AD16B4BD3F8883003F44063B3F5406F3A
:105150001AD0B3F5406F1BD8B3F5006F0CD0B3F580
:10516000006F15D8002B03D0B3F5806F08D00FE087
:10517000002387F8233012E0022387F823300EE063
:10518000042387F823300AE0082387F8233006E059
:10519000102387F8233002E0102387F82330FB68C0
:1051A0001B68514A93427AD197F82330082B24D8B0
:1051B00001A252F823F000BFDD510008FB510008A6
:1051C000E5510008FB510008EB510008FB510008B5
:1051D000FB510008FB510008F3510008FFF7B6FA35
:1051E000F86110E0444BFB610DE0FFF717FAF8613E
:1051F00009E04FF40043FB6105E00023FB6101235C
:1052000087F8223000BFFB69002B00F00781FB68A4
:105210005A6813465B001344FA699A4205D3FB6847
:105220005B681B03FA699A4203D9012387F822308D
:10523000F4E0FB6900221C4615464FF000024FF0D7
:1052400000032B0243EA14632202F9684968490803
:1052500000208846814612EB080A43EB090BFB68E5
:105260005B6800223B607A60D7E9002350465946CC
:10527000FBF79AFC02460B461346BB61BB69B3F5CC
:10528000407F08D3BB69B3F5801F04D2FB681B685D
:10529000BA69DA60C2E0012387F82230BEE0FB6819
:1052A000DB69B3F5004F6AD197F82330082B34D867
:1052B00001A252F823F000BFDD520008FD520008A1
:1052C000055300081B5300080B5300081B5300082C
:1052D0001B5300081B53000813530008FFF736FA4E
:1052E000F86120E0F369FFEF0080004000380140E2
:1052F00000100240004400400024F400FFF73CFA94
:10530000F86110E04C4BFB610DE0FFF787F9F861A5
:1053100009E04FF40043FB6105E00023FB6101233A
:1053200087F8223000BFFB69002B77D0FB695A0059
:10533000FB685B685B081A44FB685B68B2FBF3F3CD
:10534000BB61BB690F2B16D9BB69B3F5803F12D285
:10535000BB699BB223F00F03FB82BB695B089BB266
:1053600003F007039AB2FB8A1343FB82FB681B68B6
:10537000FA8ADA6052E0012387F822304EE097F88B
:105380002330082B27D801A252F823F0B15300088C
:10539000B9530008C1530008D7530008C753000889
:1053A000D7530008D7530008D7530008CF5300083D
:1053B000FFF7CCF9F86114E0FFF7DEF9F86110E0CF
:1053C0001D4BFB610DE0FFF729F9F86109E04FF48F
:1053D0000043FB6105E00023FB61012387F82230D5
:1053E00000BFFB69002B19D0FB685B685A08FB699A
:1053F0001A44FB685B68B2FBF3F3BB61BB690F2B1C
:1054000009D9BB69B3F5803F05D2BB699AB2FB6885
:105410001B68DA6002E0012387F82230FB68002273
:105420009A66FB680022DA6697F822301846283719
:10543000BD46BDE8B08F00BF0024F40080B483B047
:1054400000AF78607B685B6A03F00803002B0AD02A
:105450007B681B685B6823F400417B685A6B7B6840
:105460001B680A435A607B685B6A03F00103002BE8
:105470000AD07B681B685B6823F400317B689A6AFA
:105480007B681B680A435A607B685B6A03F002030F
:10549000002B0AD07B681B685B6823F480317B6833
:1054A000DA6A7B681B680A435A607B685B6A03F0B0
:1054B0000403002B0AD07B681B685B6823F48021FF
:1054C0007B681A6B7B681B680A435A607B685B6A5F
:1054D00003F01003002B0AD07B681B689B6823F441
:1054E00080517B689A6B7B681B680A439A607B6873
:1054F0005B6A03F02003002B0AD07B681B689B6863
:1055000023F400517B68DA6B7B681B680A439A605E
:105510007B685B6A03F04003002B1AD07B681B6832
:105520005B6823F480117B681A6C7B681B680A43F4
:105530005A607B681B6CB3F5801F0AD17B681B68BF
:105540005B6823F4C0017B685A6C7B681B680A4364
:105550005A607B685B6A03F08003002B0AD07B688B
:105560001B685B6823F400217B689A6C7B681B686E
:105570000A435A6000BF0C37BD465DF8047B704794
:1055800080B598B002AF78607B680022C3F88420B1
:10559000FCF71AFC78657B681B681B6803F008033E
:1055A000082B2ED16FF07E4300937B6D00224FF4C9
:1055B0000011786800F08CF80346002B21D07B683E
:1055C0001B68BB63BB6B53E8003F7B637B6B23F0C3
:1055D00080033B657B681B681A463B6D7B643A64BD
:1055E000396C7A6C41E80023FB63FB6B002BE6D13E
:1055F0007B682022DA677B68002283F87820032307
:1056000062E07B681B681B6803F00403042B49D12C
:105610006FF07E4300937B6D00224FF48001786829
:1056200000F056F80346002B3CD07B681B687B6279
:105630007B6A53E8003F3B623B6A23F49073FB6450
:105640007B681B681A46FB6C3B63FA62F96A3A6B2B
:1056500041E80023BB62BB6A002BE6D17B681B6874
:1056600008333B613B6953E8003FFB60FB6823F074
:105670000103BB647B681B680833BA6CFA61BB61C9
:10568000B969FA6941E800237B617B69002BE5D1A8
:105690007B682022C3F880207B68002283F8782072
:1056A000032311E07B682022DA677B682022C3F89D
:1056B00080207B6800221A667B6800225A667B681D
:1056C000002283F87820002318465837BD4680BD55
:1056D00080B584B000AFF860B9603B601346FB71E1
:1056E00049E0BB69B3F1FF3F45D0FCF76DFB0246D3
:1056F0003B68D31ABA699A4202D3BB69002B01D125
:10570000032348E0FB681B681B6803F00403002BBD
:1057100031D0FB681B68DB6903F00803082B10D14C
:10572000FB681B6808221A62F86800F038F8FB680A
:105730000822C3F88420FB68002283F87820012324
:1057400029E0FB681B68DB6903F40063B3F5006FB5
:1057500011D1FB681B684FF400621A62F86800F010
:105760001EF8FB682022C3F88420FB68002283F81F
:10577000782003230FE0FB681B68DA69BB681340DD
:10578000BA689A420CBF01230023DBB21A46FB79A8
:105790009A42A6D0002318461037BD4680BD80B47B
:1057A00095B000AF78607B681B687B637B6B53E8C8
:1057B000003F3B633B6B23F49073FB647B681B6887
:1057C0001A46FB6C3B64FA63F96B3A6C41E80023C0
:1057D000BB63BB6B002BE6D17B681B6808333B6265
:1057E0003B6A53E8003FFB61FB6923F00103BB64A4
:1057F0007B681B680833BA6CFA62BB62B96AFA6AE2
:1058000041E800237B627B6A002BE5D17B681B6E3D
:10581000012B18D17B681B68FB60FB6853E8003FD5
:10582000BB60BB6823F010037B647B681B681A466F
:105830007B6CBB617A617969BA6941E800233B619D
:105840003B69002BE6D17B682022C3F880207B686F
:1058500000221A667B6800229A6600BF5437BD4654
:105860005DF8047B70472DE9FF4755EC104B002D88
:105870000E4619462B46BBBF05F100431D460023CB
:105880002D230B700D9BDDF830A0914623F02008EE
:10589000BCBF22461446B8F1460F05D0B8F1450FFB
:1058A00000D10136022100E0032103AB019302ABDA
:1058B000009345EC104B5346324600F069FEB8F1B8
:1058C000470F074602D119F0010F22D0B8F1460F59
:1058D00007EB060910D13B78302B0AD100220023B8
:1058E00020462946FBF7F0F818B9C6F10106CAF8B8
:1058F0000060DAF80030994400220023204629464F
:10590000FBF7E2F808B1CDF80C903022039B4B4531
:1059100007D3039B0E9ADB1B3846136004B0BDE827
:10592000F087591C03911A70F0E7F7B50346002978
:10593000B8BF494203F8022BB4BF2D222B220929FC
:1059400042702ADD0DF1070217460A26944691FBA4
:10595000F6F506FB151430340CF8014C0C46632C9C
:1059600002F1FF322946F1DC3031ACF1020402F8D9
:10597000011C411C2246BA420AD30DF10902A2EBD6
:105980000C02BC4288BF00221344181A03B0F0BDB9
:1059900012F8015B01F8015FEDE7302330318370CD
:1059A000C170031DF1E700002DE9F04F2DED028BD2
:1059B0008DB00C46DDF8608016461F46054600F0A7
:1059C000E7FCD0F800A05046FAF752FC00230A93F7
:1059D00023680593D8F8003094F818B0073323F003
:1059E000070303F10802C8F80020D3E9008929F071
:1059F00000430793CDF8188008EE100AC4E9128915
:105A0000DDE906019E4B4FF0FF32FBF78FF888BBB4
:105A1000DDE906019A4B4FF0FF32FBF769F848BB0E
:105A20000022002340464946FBF758F810B12D23C9
:105A300084F84330934A944BBBF1470F94BF904690
:105A4000984603232361059B23F0040323604FF052
:105A50000009009733460BAA2146284600F0DAF9E0
:105A6000013040F090804FF0FF300DB0BDEC028B64
:105A7000BDE8F08F42464B4640464946FBF756F894
:105A800040B14B46002BBCBF2D2384F843307F4AE6
:105A90007F4BD1E763680BF0DF0206925A1C3FD1BF
:105AA00006236360059B616843F4806200230393CF
:105AB0000AABCDE901B309AB49EC108B009322602E
:105AC0000DF123032846FFF7CEFE069B0999472BCD
:105AD000804608D1C81C02DB6368994241DDABF106
